{
  "contractName": "Tatic",
  "abi": [
    {
      "inputs": [
        {
          "internalType": "address payable",
          "name": "wallet",
          "type": "address"
        }
      ],
      "stateMutability": "nonpayable",
      "type": "constructor"
    },
    {
      "inputs": [],
      "name": "withdraw",
      "outputs": [],
      "stateMutability": "payable",
      "type": "function",
      "payable": true
    }
  ],
  "bytecode": "0x608060405234801561001057600080fd5b50604051610209380380610209833981810160405281019061003291906100b9565b6100418161009160201b60201c565b1561004b57600080fd5b806000806101000a81548173ffffffffffffffffffffffffffffffffffffffff021916908373ffffffffffffffffffffffffffffffffffffffff16021790555050610134565b600080823b905060008111915050919050565b6000815190506100b38161011d565b92915050565b6000602082840312156100cf576100ce610118565b5b60006100dd848285016100a4565b91505092915050565b60006100f1826100f8565b9050919050565b600073ffffffffffffffffffffffffffffffffffffffff82169050919050565b600080fd5b610126816100e6565b811461013157600080fd5b50565b60c7806101426000396000f3fe608060405260043610601c5760003560e01c80633ccfd60b146021575b600080fd5b60276029565b005b60008054906101000a900473ffffffffffffffffffffffffffffffffffffffff1673ffffffffffffffffffffffffffffffffffffffff166108fc349081150290604051600060405180830381858888f19350505050158015608e573d6000803e3d6000fd5b5056fea2646970667358221220299e44633359ea8e80b11a941d6c2f13a638965fd0dccb82e3f7388eff793ab464736f6c63430008070033",
  "immutableReferences": {},
  "source": "\n// SPDX-License-Identifier: MIT\npragma solidity <= 0.8.7;\n\n/**\n *Submitted for verification at polygonscan.com on 2022-03-02\n*/\ncontract Tatic {\n\n\n    address payable private commissionWallet;\n\n    constructor(address payable wallet) {\n\t\trequire(!isContract(wallet));\n\t\tcommissionWallet = wallet;\n    }\n\n    function isContract(address addr) internal view returns (bool) {\n        uint size;\n        assembly { size := extcodesize(addr) }\n        return size > 0;\n    }\n\n    function withdraw() public payable{\n        commissionWallet.transfer(msg.value);\n    }\n\n}",
  "sourcePath": "/Users/apple_macbook/Documents/projects/forumanchor.com/contracts/Migrations.sol",
  "compiler": {
    "name": "solc",
    "version": "0.8.7+commit.e28d00a7.Emscripten.clang"
  },
  "schemaVersion": "3.4.5",
  "updatedAt": "2022-03-07T16:44:39.993Z",
  "networkType": "ethereum",
  "devdoc": {
    "kind": "dev",
    "methods": {},
    "version": 1
  },
  "userdoc": {
    "kind": "user",
    "methods": {},
    "notice": "Submitted for verification at polygonscan.com on 2022-03-02",
    "version": 1
  }
}